:060000000A128A110C280F
:10000800FE00030EF2000A08F3000A128A11AE2855
:100018000A128A110F28F601F701F801F901831273
:100028000313A501A60183010A128A11FA2883166F
:100038000313811281114428F830810568280108CA
:10004800F8390138810068280108F8390238810038
:1000580068280108F8390338810068280108F83948
:100068000438810068280108F839053881006828B3
:100078000108F839063881006828073081046828A3
:100088007508003A03194C28013A031963286828AF
:100098007408023A03192028063A031923280C3A4F
:1000A80003192828183A03192D28303A0319322839
:1000B800603A03193728C03A03193C28682874089D
:1000C800003A0319412868283D3083120313810040
:1000D8000B11080083160313880118308700850167
:1000E8008516831603178901831603138601831265
:1000F8000313860102300A128A11EC200A128A11AF
:10010800803083120313A3002308A0001030A4003A
:100118002408A100A20124300A128A11CE200A1252
:100128008A11831603138C168B160A128A1113214F
:100138000A128A110030F4000130F5000A128A11FF
:100148001B200A128A11831603138C150C170B1720
:100158008B170800831203138C1DB328B428C728F3
:100168000A128A1103210A128A11831203138800C2
:100178000808F10071070A128A1119210A128A1156
:10018800831203138C1173088A00720E8300FE0E0B
:100198007E0E0900F400831603138712741DD528F8
:1001A800D628DE288312031322088316031394002B
:1001B8008715E628831203132008220483160313E5
:1001C8009400871174088312031321049400080013
:1001D800F50075080739F400F40E831603130F08A9
:1001E80074068F3974068F000F1408000A128A11DA
:1001F8006E200A128A11FF280A128A110C280A1284
:100208008A110C210A128A11831203131308080099
:1002180083160313141C112912290C2908003D30D8
:100228008312031381000B110800F0007008831279
:060238000313930008000F
:08400000FF3FFF3FFF3FFF3FC0
:04400E00D520FF3F7B
:00000001FF
